{
  "contractName": "Money",
  "abi": [
    {
      "inputs": [],
      "stateMutability": "nonpayable",
      "type": "constructor"
    },
    {
      "inputs": [
        {
          "internalType": "address",
          "name": "",
          "type": "address"
        }
      ],
      "name": "balances",
      "outputs": [
        {
          "internalType": "uint256",
          "name": "",
          "type": "uint256"
        }
      ],
      "stateMutability": "view",
      "type": "function"
    },
    {
      "inputs": [],
      "name": "owner",
      "outputs": [
        {
          "internalType": "address",
          "name": "",
          "type": "address"
        }
      ],
      "stateMutability": "view",
      "type": "function"
    },
    {
      "inputs": [],
      "name": "supply",
      "outputs": [
        {
          "internalType": "uint256",
          "name": "",
          "type": "uint256"
        }
      ],
      "stateMutability": "view",
      "type": "function"
    },
    {
      "inputs": [],
      "name": "timestamp",
      "outputs": [
        {
          "internalType": "uint256",
          "name": "",
          "type": "uint256"
        }
      ],
      "stateMutability": "view",
      "type": "function"
    },
    {
      "inputs": [
        {
          "internalType": "uint256",
          "name": "amount",
          "type": "uint256"
        },
        {
          "internalType": "address",
          "name": "to",
          "type": "address"
        }
      ],
      "name": "transfer",
      "outputs": [
        {
          "internalType": "bool",
          "name": "",
          "type": "bool"
        }
      ],
      "stateMutability": "nonpayable",
      "type": "function"
    },
    {
      "inputs": [],
      "name": "addSupply",
      "outputs": [
        {
          "internalType": "bool",
          "name": "",
          "type": "bool"
        }
      ],
      "stateMutability": "nonpayable",
      "type": "function"
    },
    {
      "inputs": [
        {
          "internalType": "uint256",
          "name": "x",
          "type": "uint256"
        },
        {
          "internalType": "uint256",
          "name": "y",
          "type": "uint256"
        }
      ],
      "name": "add",
      "outputs": [
        {
          "internalType": "uint256",
          "name": "",
          "type": "uint256"
        }
      ],
      "stateMutability": "view",
      "type": "function"
    }
  ],
  "bytecode": "0x608060405234801561001057600080fd5b50336000806101000a81548173ffffffffffffffffffffffffffffffffffffffff021916908373ffffffffffffffffffffffffffffffffffffffff160217905550426001819055506103e86002819055506103e8600360003373ffffffffffffffffffffffffffffffffffffffff1673ffffffffffffffffffffffffffffffffffffffff16815260200190815260200160002081905550610865806100b66000396000f3fe608060405234801561001057600080fd5b506004361061007d5760003560e01c80638da5cb5b1161005b5780638da5cb5b14610100578063b7760c8f1461011e578063b80777ea1461014e578063f82923da1461016c5761007d565b8063047fc9aa1461008257806327e235e3146100a0578063771602f7146100d0575b600080fd5b61008a61018a565b60405161009791906106d4565b60405180910390f35b6100ba60048036038101906100b591906104b0565b610190565b6040516100c791906106d4565b60405180910390f35b6100ea60048036038101906100e59190610515565b6101a8565b6040516100f791906106d4565b60405180910390f35b61010861024d565b604051610115919061063e565b60405180910390f35b610138600480360381019061013391906104d9565b610271565b6040516101459190610659565b60405180910390f35b6101566103ab565b60405161016391906106d4565b60405180910390f35b6101746103b1565b6040516101819190610659565b60405180910390f35b60025481565b60036020528060005260406000206000915090505481565b60008060009054906101000a900473ffffffffffffffffffffffffffffffffffffffff1673ffffffffffffffffffffffffffffffffffffffff163373ffffffffffffffffffffffffffffffffffffffff1614610239576040517f08c379a0000000000000000000000000000000000000000000000000000000008152600401610230906106b4565b60405180910390fd5b81836102459190610700565b905092915050565b60008054906101000a900473ffffffffffffffffffffffffffffffffffffffff1681565b600082600360003373ffffffffffffffffffffffffffffffffffffffff1673ffffffffffffffffffffffffffffffffffffffff1681526020019081526020016000205410156102f5576040517f08c379a00000000000000000000000000000000000000000000000000000000081526004016102ec90610674565b60405180910390fd5b82600360003373ffffffffffffffffffffffffffffffffffffffff1673ffffffffffffffffffffffffffffffffffffffff16815260200190815260200160002060008282546103449190610756565b9250508190555082600360008473ffffffffffffffffffffffffffffffffffffffff1673ffffffffffffffffffffffffffffffffffffffff168152602001908152602001600020600082825461039a9190610700565b925050819055506001905092915050565b60015481565b600062093a80600154426103c59190610756565b11610405576040517f08c379a00000000000000000000000000000000000000000000000000000000081526004016103fc90610694565b60405180910390fd5b426001819055506103e8600260008282546104209190610700565b925050819055506103e8600360003373ffffffffffffffffffffffffffffffffffffffff1673ffffffffffffffffffffffffffffffffffffffff16815260200190815260200160002060008282546104789190610700565b925050819055506001905090565b60008135905061049581610801565b92915050565b6000813590506104aa81610818565b92915050565b6000602082840312156104c257600080fd5b60006104d084828501610486565b91505092915050565b600080604083850312156104ec57600080fd5b60006104fa8582860161049b565b925050602061050b85828601610486565b9150509250929050565b6000806040838503121561052857600080fd5b60006105368582860161049b565b92505060206105478582860161049b565b9150509250929050565b61055a8161078a565b82525050565b6105698161079c565b82525050565b600061057c6014836106ef565b91507f496e73756666696369656e742062616c616e63650000000000000000000000006000830152602082019050919050565b60006105bc600a836106ef565b91507f4572726f722074696d65000000000000000000000000000000000000000000006000830152602082019050919050565b60006105fc6012836106ef565b91507f576974686f7574207065726d697373696f6e00000000000000000000000000006000830152602082019050919050565b610638816107c8565b82525050565b60006020820190506106536000830184610551565b92915050565b600060208201905061066e6000830184610560565b92915050565b6000602082019050818103600083015261068d8161056f565b9050919050565b600060208201905081810360008301526106ad816105af565b9050919050565b600060208201905081810360008301526106cd816105ef565b9050919050565b60006020820190506106e9600083018461062f565b92915050565b600082825260208201905092915050565b600061070b826107c8565b9150610716836107c8565b9250827fffffffffffffffffffffffffffffffffffffffffffffffffffffffffffffffff0382111561074b5761074a6107d2565b5b828201905092915050565b6000610761826107c8565b915061076c836107c8565b92508282101561077f5761077e6107d2565b5b828203905092915050565b6000610795826107a8565b9050919050565b60008115159050919050565b600073ffffffffffffffffffffffffffffffffffffffff82169050919050565b6000819050919050565b7f4e487b7100000000000000000000000000000000000000000000000000000000600052601160045260246000fd5b61080a8161078a565b811461081557600080fd5b50565b610821816107c8565b811461082c57600080fd5b5056fea2646970667358221220a537e5bd6737b9c8a74b1cf9dd8a35add26dca8047a142cdc11b2a4887910e7064736f6c63430008000033",
  "immutableReferences": {},
  "source": "// SPDX-License-Identifier: MIT\npragma solidity ^0.8.0;\n\ncontract Money {\n    address public owner;\n    uint256 public timestamp;\n    uint256 public supply;\n    mapping(address => uint256) public balances;\n\n    constructor() {\n        owner = msg.sender;\n        timestamp = block.timestamp;\n        supply = 1000;\n        balances[msg.sender] = 1000;\n    }\n\n    function transfer(uint256 amount, address to) public returns (bool) {\n        require(balances[msg.sender] >= amount, \"Insufficient balance\");\n\n        balances[msg.sender] -= amount;\n        balances[to] += amount;\n\n        return true;\n    }\n\n    function addSupply() public returns (bool) {\n        require(block.timestamp - timestamp > 7 days, \"Error time\");\n\n        timestamp = block.timestamp;\n        supply += 1000;\n        balances[msg.sender] += 1000;\n\n        return true;\n    }\n\n    function add(uint256 x, uint256 y) public view returns (uint256) {\n        require(msg.sender == owner, \"Without permission\");\n\n        return x + y;\n    }\n}\n",
  "sourcePath": "/Users/alberto/Desktop/money/contracts/Money.sol",
  "compiler": {
    "name": "solc",
    "version": "0.8.0+commit.c7dfd78e.Emscripten.clang"
  },
  "schemaVersion": "3.4.1",
  "updatedAt": "2021-08-31T16:52:43.472Z",
  "devdoc": {
    "kind": "dev",
    "methods": {},
    "version": 1
  },
  "userdoc": {
    "kind": "user",
    "methods": {},
    "version": 1
  }
}